:020000040800F2
:100000001837002049010008252200082122000895
:1000100023220008BB110008F13A0008000000008C
:100020000000000000000000000000006136000831
:10003000BD11000800000000FD0100086536000841
:100040006301000863010008630100084D350008E2
:1000500063010008630100086301000863010008F0
:1000600063010008630100086301000863010008E0
:1000700063010008630100086301000863010008D0
:1000800063010008630100086301000863010008C0
:1000900063010008630100086301000863010008B0
:1000A00063010008630100086301000863010008A0
:1000B00085360008C93600080D37000863010008BE
:1000C0006301000863010008630100086301000880
:1000D00063010008A93A0008C13A0008D93A0008AB
:1000E0006301000863010008630100086301000860
:1000F0006301000863010008630100086301000850
:100100006301000863010008353700086301000837
:100110002938000863010008630100086301000832
:10012000630100086301000863010008630100081F
:10013000DFF810D000F006FE0048004771600008AC
:10014000AFF3008018370020064880470648004774
:10015000FEE7FEE7FEE7FEE7FEE7FEE7FEE7FEE777
:10016000FEE7FEE7813600083101000872B602B4EE
:10017000EFF3118180F31188BFF34F8FBFF36F8FBF
:10018000084602BC62B6704772B680F31188BFF3AE
:100190004F8FBFF36F8F62B6704772B630484FF023
:1001A000FF010170002080F309882E48016881F367
:1001B000088802F063FC2C48012101702B482C496F
:1001C0000A7802702B482C490A680260106880F394
:1001D0000988EFF3148040F0020080F31488BFF325
:1001E0006F8FBDE8F04F0FBCBDE8005006BC62B693
:1001F000084722484FF080510160704772B640F2C4
:100200006C12C2F20002116881F31188BFF34F8FA4
:10021000BFF36F8F62B6EFF3098020E9F04F154D01
:1002200029680860744602F029FC104810490A78D1
:10023000027011490A682A6044F0040E1068B0E8A0
:10024000F04F80F3098840F20002C0F2000272B65B
:1002500082F31188BFF34F8FBFF36F8F62B6704781
:1002600022ED00E0680100207701002074010020E9
:1002700075010020900100209801002004ED00E0AD
:10028000202A04DB203A21FA02F00021704721FAEB
:1002900002F3D040C2F12002914008431946704752
:1002A000D2B201E000F8012B491EFBD270470022B8
:1002B000F6E710B513460A4604461946FFF7F0FF65
:1002C000204610BD421C10F8011B0029FBD1801AEA
:1002D000704730B505460020034600E05B1C9342A2
:1002E00005D2EC5CC85C201A01D1002CF6D130BDDF
:1002F00070B50F4D00B92868002412E00A4602E0EC
:100300009E4203D0521C1378002BF9D1DAB222435B
:1003100005D02BB124B1002100F8011B04E00446F4
:10032000401C0678002EE9D12860204670BD0000F0
:10033000CC010020F0B480EA0102D40F4200B2EBFD
:10034000410F02D20246084611464A0042D0C30D70
:10035000DDB2C1F3C752AD1A202D35DAC1F3160153
:1003600041F4000204B15242C5F1200602FA06F13E
:100370002A411044B3EBD05F23D0C4B1012DA0EBD0
:10038000C35009DCF0BC4FF0004202EAC352DBB2BA
:1003900000F5000000F02DBB400000F1807000EB84
:1003A000C350A0F1807040EAD170490009E04908CB
:1003B00041EAC071A0EBC35000F50000400800EB1B
:1003C000C350F0BC00F00CBB6142012202EB4101C2
:1003D000001BF6E7F0BC704781F00041AAE780F00F
:1003E0000040A7E780EA010210B502F00043400098
:1003F00022D04A001FD0010E01EB1261C0F356005B
:10040000C2F3560240F4000042F40002A0FB0220B6
:1004100000047F39140400D0401C50EA124001D47B
:100420004000491EC2B20C0604EBD010401C40082C
:10043000802A02D003E0002010BD20F00100002936
:1004400000DA0020184310BD30B480EA010202F047
:10045000004530F0004221F0004013D090B1C30DB0
:10046000D40DC2F31601C0F31600E41A41F40001E2
:1004700040F400027D34914201D3641C00E0490045
:10048000002C02DA30BC002070474FF4000000233B
:10049000914201D3891A034340084FEA4101F7D141
:1004A00051B1914202D14FF0004105E002D24FF02C
:1004B000010101E06FF0010103EBC450284430BC9E
:1004C00000F08EBA420005D0C0F3C75252429142AA
:1004D00001DC0020704700EBC15070472DE9FE4F52
:1004E000804681EA0300C00F0C46009021F00041D5
:1004F00023F00045B8EB0200A94105D24046214651
:1005000090461C460B46024623F00040104347D05D
:10051000270DC7F30A00C3F30A510290401A019055
:1005200040286BDAC3F3130040F4801B0098924616
:1005300020B10023D2EB030A63EB0B0B0198594661
:10054000C0F14002504600F0DCF906460D46504628
:100550005946019A00F0E4F910EB080061410024CB
:1005600087EA115284EAE7731A4340D0009A62B3D3
:10057000019A012A4FEA075215DC001B61EB0201C8
:100580004FF0004202EA0752CDE90042001C41F55B
:10059000801132462B4600F069FA03B0BDE8F08FB7
:1005A00040462146F9E7001B61EB0201001C41F5C2
:1005B000801300185B412018A2F5001747EB0301D8
:1005C00040EAD570B6196D4111E06D084FEA360664
:1005D00045EAC0754FEA0752001B61EB0201001C9F
:1005E00041F5801149084FEA300000195141324667
:1005F0002B4603B0BDE8F04F00F029BA0098012265
:1006000040000023D0EB020263EBE0730098214628
:100610004FEAE074B8EB000061EB0401E9E783F016
:1006200000435BE781F0004158E72DE9F04D81EA96
:10063000030404F0004B21F0004514464FF0000A7B
:1006400023F0004150EA050220D054EA01021DD0F7
:10065000C5F30A570246C5F31303C1F31300C1F3F0
:100660000A5640F4801543F48013A7EB0608101BCC
:10067000D64608F2FD3873EB050002D308F10108F5
:1006800001E092185B41B8F1000F03DA0020014647
:10069000BDE8F08D00204FF48011064684460EE040
:1006A000171B73EB050705D3121B63EB050306430A
:1006B0004CEA010C49084FEA300092185B4150EABD
:1006C0000107EDD152EA030012D082EA040083EA66
:1006D0000501084305D0101BAB4106D201220023BF
:1006E00006E000224FF0004302E06FF001025310D9
:1006F0001AEB06004CEB085110EB0A0041EB0B0122
:10070000BDE8F04D00F0A3B970B521F000430343FC
:100710000CD0C1F30A550024D5EB040564EB0403A7
:10072000D617AD1AB34102DB0020014670BD201878
:1007300041EB025170BD96230022114600F059B9D9
:100740000EB540F2334102910021CDE900110A4675
:100750000B4600F08BF903B000BD20F00040C10D46
:10076000C0F3160040F400007F2901DA0020704732
:10077000962903DCC1F19601C8407047963988403C
:100780007047C1F30A5210B5C1F3130140F2FF33B1
:1007900041F480119A4201DA002010BD40F2334347
:1007A0009A42A2F2334203DC5242FFF769FD10BDC8
:1007B000904010BD00F0004230F000400AD0C10D62
:1007C00001F56071C0F3160042EA0151C20840070A
:1007D00011437047002001467047000030B5041EE9
:1007E00071F1000404DB4FF00044404264EB01016E
:1007F000141E73F1000405DB1C464FF00043524207
:1008000063EB04038B4208BF824230BD30B5041E47
:1008100071F1000404DB4FF00044404264EB01013D
:10082000141E73F1000405DB1C464FF000435242D6
:1008300063EB0403994208BF904230BD01F00043CE
:1008400030B421F0004150EA010206D00A0DA2F5B1
:100850006072C1F31301002A02DC30BC0020704733
:10086000440F44EAC104C100E01830BC00EBC250A0
:1008700000F0B6B830B50B46014600202022012416
:1008800009E021FA02F59D4205D303FA02F5491B5E
:1008900004FA02F52844151EA2F10102F1DC30BD74
:1008A0002DE9F05F0546002092469B4688460646A5
:1008B000814640241BE02846414647462246FFF732
:1008C000DFFC53465A46C01A914110D311461846D0
:1008D000224600F016F82D1A67EB01084F46224613
:1008E0000120002100F00DF817EB00094E41201EF9
:1008F000A4F10104DFDC484631462A464346BDE800
:10090000F09F202A04DB203A00FA02F10020704711
:100910009140C2F1200320FA03F31943904070473D
:10092000202A06DBCB17203A41FA02F043EAE073B3
:1009300006E041FA02F3D040C2F1200291400843A0
:10094000194670470FB4002300B589B00CA9009177
:100950000B996FF00042CB601E4B06931E4B079322
:100960000423CDE901321D4A089202466B4600205D
:1009700000F094FA09B05DF814FB70B586B0064635
:100980004FF0FF300091CDE90101002015460C46E3
:1009900004903246694604A8FFF7D4FF0246049843
:1009A000211825B108B1084600E0204628600498C7
:1009B00000280DD0002A02DD0098884208D0081BCC
:1009C0000094CDE901043246694604A8FFF7BAFF56
:1009D00006B070BDD5100008F3100008690D0008BE
:1009E0000029A8BF7047401C490008BF20F0010043
:1009F000704710B4B0FA80FC00FA0CF050EA010421
:100A000004BF10BC704749B1CCF1200421FA04F4B2
:100A100011FA0CF118BF012121430843A3EB0C018B
:100A2000CB1D4FEA00614FEA102042BF002010BCEE
:100A3000704700EBC35010440029A4BF10BC70479E
:100A4000401C490008BF20F0010010BC704710B5E1
:100A5000141E73F1000408DA401C41F100019218E1
:100A60005B411A4301D120F0010010BD2DE9F04D8A
:100A700092469B4611B1B1FA81F202E0B0FA80F2DF
:100A800020329046FFF73DFF04460F4640EA0A0039
:100A900041EA0B0153465A46084313D0114653EA24
:100AA000010019D0C8F140025046FFF7E9FB0546A6
:100AB0000E46504659464246FFF723FF084305D0ED
:100AC000012004E020463946BDE8F08D00200543B2
:100AD00046EAE0762C4337430A986305E40AA0EB24
:100AE00008000022FD0A44EA47540A3002D50020DB
:100AF0000146E9E7010510196941DDE908450019DA
:100B00006941BDE8F04DA2E72DE9FE4F81EA0304FB
:100B100004F0004421F0004100944FF0000B23F05A
:100B2000004350EA01045ED052EA03045BD0C3F3F1
:100B30000A54C1F30A552C44A4F2F3340194A0FBE7
:100B40000254C1F3130141F48011C3F3130343F4BE
:100B5000801301FB024400FB034E840A970A44EA17
:100B6000815447EA8357A4FB076802958D0A05FB69
:100B700007854FEA932C04FB0C542705029D4FEA8E
:100B8000065847EA1637B5EB08056EEB070C870EDB
:100B9000920E47EA811742EA8312A7FB0201B6EBE5
:100BA0000B0164EB00042B0D43EA0C335E1844EB9D
:100BB0001C50DA465146E7FB0201C5F313044FEA25
:100BC0000B3343EA14534FEA0432019C43EA060311
:100BD000A4F10C040294009CCDE900B4FFF746FF99
:100BE00003B0BDE8F08F00200146F9E72DE9F04D94
:100BF00000231A461B1A8A4103DB00200146BDE888
:100C0000F08DC1F30A52C1F3130141F480154FF086
:100C1000000BD10702D100186D41521E0027044677
:100C200040F2FF11384601EB620A3E46804602461A
:100C300000204FF48011FFF723FBC2197141BB184C
:100C400046EB0100B4EB030C75EB000C04D3E41A83
:100C500065EB000517460E46241908F101006D41A9
:100C600080463428E3DDF91946EB0600091BA8414C
:100C700003D24FF0FF32134601E0002213461BEB74
:100C8000070046EB0A51BDE8F04DFFF7E0BE2DE945
:100C9000FE4FC3F30A5701F000450024C1F30A5682
:100CA000C3F31303C1F3130143F4801312EB020ADD
:100CB000A64641F48011009543EB030CA7F1010B0C
:100CC00016E0B0EB0A0061EB0C01071E71F10007A2
:100CD00007DA4FF00008D0EB080085F0004568EB1C
:100CE0000101171A73EB0107EBD3761E0018494177
:100CF0005E45F6DA50EA010209D0CDE900E50022AE
:100D000013460296FFF7B2FE03B0BDE8F08F20460F
:100D10000099F9E7C1F30A52C1F3130140F2FF331E
:100D200041F480119A4202DA00200146704740F2F5
:100D300033439A42A2F2334202DC5242FFF7A0BA96
:100D4000FFF7DFBD064C074D06E0E06840F0010309
:100D500094E8070098471034AC42F6D3FFF7ECF95B
:100D6000708D0008908D0008C0B24FF4F05100F073
:100D7000D1B900002DE9FF4F087883B09946FF28CC
:100D800005D0491C2D2804D00024002008E00020B4
:100D90000BE00124F9E700EB800003EB4000491C65
:100DA0000B78FF2BF7D104B1404200230293147853
:100DB00019461D462D2C01D02B2C04D1521C2D2C54
:100DC00013D000240294AA461478FF2C0FD00A25D1
:100DD000A3FB057801FB05814FF0000C03FB0C1110
:100DE000521CE3194AEB0101EEE70124EAE78144D2
:100DF00053EA010002D019F5C87F06DA03980021F2
:100E0000C0E9001107B0BDE8F08F0025AE4E2F46B7
:100E1000DFF8B882184600F091F9CDE90001B9F188
:100E2000000002DAC9F1000400E004460023A74AEA
:100E30001AEB030B42EB045A12E0E00707D02A46F4
:100E4000334638464146FFF75FFE074688462A4646
:100E5000334610461946FFF757FE05460E46641006
:100E6000002CEAD1DDE90001B9F1000F5A465346E2
:100E700006DAFFF7DAFB3A464346FFF7D6FB05E012
:100E8000FFF742FE3A464346FFF73EFE029A0AB19A
:100E900081F00041039AC2E90001B3E72DE9FF4F59
:100EA0001F468DB0D7E901464FF0FF382E2045464A
:100EB0004FF000090B90B9696D1C0E988847396A8C
:100EC000824688470028F6D1BAF1FF3F0AD024F4C1
:100ED000D064002E11DDBAF12B0F08D0BAF12D0F1E
:100EE0000BD102E0404611B08DE744F48064B9694B
:100EF0006D1C0E9888478246761E6946600501D5AE
:100F00002D2000E02B208DF8000001F1010B0DF1E8
:100F1000200809E0B9696D1C0E98884782460F9831
:100F200044F40074761E0560002E02DDBAF1300F25
:100F3000F0D00B998A453ED144F0800406E00F9929
:100F4000681CA9F1010944F400740860B9696D1CBA
:100F5000761E0E98884782463028F0D02BE00B99F9
:100F60008A4505D1200603D444F08004761E18E09B
:100F7000504602F04DFF08B30DF11301761E44F404
:100F800000748B4508D2AAF130000BF8010B200643
:100F900007D5A9F1010003E0200602D409F1010000
:100FA0008146A00502D50F99681C0860B9696D1CBF
:100FB0000E9888478246002ED1DC53E0002E51DD8A
:100FC000BAF1650F02D0BAF1450F4BD1A00549D552
:100FD000B9696D1C24F44074761E0E9888478246C9
:100FE000002E0CDD2B2804D0BAF12D0F07D144F4CC
:100FF0008074B9696D1C0E9888478246761EE0059C
:1010000001D52D2100E02B2108F8011BCDF82C8003
:1010100021E00DF12901761E44F4007488450CD2BC
:10102000AAF1300010F0FF0088F8000002D10B99FF
:10103000884509D908F1010806E0E00501D52448F2
:1010400001E042F20F708146B9696D1C0E98884725
:1010500082460F980560002E04DD504602F0D8FE4F
:101060000028D6D1F9690E988847FF208BF8000038
:1010700088F800000020069007904B466A4608A9B1
:1010800006A8FFF777FEA00502D46FF001002AE75B
:1010900014F0240F0AD0E00714D1DDE906123868F5
:1010A000031D3B600068C0E900120BE0DDE90601AA
:1010B000FFF7C4FB0146E00704D13868021D3A601F
:1010C0000068016028460EE7000014400000F03F71
:1010D000F1D8FFFF426842B1016811F8013B23B12A
:1010E000521EC0E90012184670470121C160881ED7
:1010F000704742685AB1C368016843B983688B423C
:1011000005D0491E521CC0E90012002070474FF064
:10111000FF3070477F2801D9002208E0064A02EB21
:101120005002C007127800D1120902F00F0201200C
:101130009040084070470000308D00080EB540F226
:10114000334202920022CDE900221346FFF78EFCC3
:1011500003B000BD70B58C1810F8015B15F00703E3
:1011600001D110F8013B2A1106D110F8012B03E040
:1011700010F8016B01F8016B5B1EF9D12B0705D448
:101180000023521E0DD401F8013BFAE710F8013B91
:10119000CB1A921C03E013F8015B01F8015B521EAD
:1011A000F9D5A142D8D3002070BD70477047704771
:1011B00070477047704770477047FEE77047000000
:1011C0002DE9F04186B01D4CA06940F08000A0617F
:1011D000A06900F080000190032002901126039680
:1011E0000027049702250595DFF8548002A94046A0
:1011F00000F012F9A06940F04000A061A06900F081
:1012000040000190012002900396049705950D4C33
:1012100002A9204600F000F901221146204600F004
:1012200014FA01220221404600F00FFA0122114671
:10123000404600F00AFA06B0BDE8F0810010024016
:10124000001C0140001801402DE9F05F002590F8D6
:101250002110022903D004218163012595E0016852
:101260000A6822F00E020A6001680A6822F0010290
:101270000A60474E464FB215DFF814C1DFF81081FF
:10128000DFF80C91DFF808A1DFF804B10168783FBE
:1012900013011402ACF1640CA8F15008A9F13C0947
:1012A000AAF1280AABF1140B4FF4801EB1422FD9DA
:1012B000B94201D1012227E0614501D1102223E08A
:1012C000414521D0494501D11A461DE0514501D182
:1012D000224619E0594501D1724615E02D4EB14222
:1012E00001D1012210E02B4E1436B14201D110225F
:1012F0000AE0284E2836B14206D0264A3C329142B6
:1013000001D11A4600E022462249091F0A6033E053
:10131000B94201D101222CE0614501D1102228E01F
:10132000414526D0494501D11A4622E0514501D117
:1013300022461EE0594501D172461AE0B14202D15F
:101340004FF0807215E0134EB14201D1012210E03E
:10135000104E1436B14201D110220AE00D4E28364B
:10136000B14206D00B4A3C32914201D11A4600E00C
:101370002246074980394A60012180F82110002166
:1013800080F82010416B01B188472846BDE8F09FE6
:10139000800002400804024030B500280DD01B4BED
:1013A0000168142299420AD2194B0B44B3FBF2F2A2
:1013B00092000264174AC2630BE0012030BD134B58
:1013C0005B420B44B3FBF2F2920002640F4A083A0C
:1013D000C2630222001D42770A6843F6F0739A4303
:1013E000D0E900342343D0E902452C432343046968
:1013F0002343446923438469234313430B6000213F
:101400004163012242770177002030BD0804024089
:10141000F8FFFDBF000002402DE9F84F0024002333
:10142000DFF8E0914FF00F0809F1040A0AF1040B0C
:101430000BF1040EDFE00127A7403A40BA4275D114
:10144000DFF8C4C14D68A5EB0C0665452BD00DDC5B
:10145000032D34D005DC35B3012D19D0022D2FD149
:101460001BE0112D16D0122D2AD119E0B6F5881FD8
:1014700019D006DCB6F5803F15D0B6F5801F1FD118
:1014800011E0B6F5001F0ED0B6F5041F18D10AE022
:10149000CB6815E0CB681B1D12E0CB6808330FE06A
:1014A000CB680C330CE08B6823B1012B04D00823EC
:1014B000476105E0042303E00823076100E00023FF
:1014C000FF2A01D8054601E000F1040502D84FEAE1
:1014D000840603E0A4F108064FEA86062F6808FA9E
:1014E00006FC27EA0C0703FA06F647EA06072F6010
:1014F0004D68ED007ED5454DAE6946F00106AE6102
:10150000AD6905F001050095414D24F003067719FA
:10151000BE68A5072D0F08FA05FC26EA0C06DFF8C1
:10152000F4C0604503D14FF0000C25E062E0DFF825
:10153000E8C0604502D14FF0010C1DE0DFF8DCC0CF
:10154000604502D14FF0020C16E0DFF8D4C06045D0
:1015500002D14FF0030C0FE0DFF8C8C0604502D1A4
:101560004FF0040C08E0DFF8C0C0604502D14FF036
:10157000050C01E04FF0060C0CFA05FC4CEA060CD9
:10158000C7F808C04D68ED0305D5D9F800501543DC
:10159000C9F8005004E0D9F800509543C9F800504C
:1015A0004D68AD0305D5DAF800501543CAF8005070
:1015B00004E0DAF800509543CAF800504D68ED0297
:1015C00005D5DBF800501543CBF8005004E0DBF8FC
:1015D00000509543CBF800504D68AD0205D5DEF8BC
:1015E00000501543CEF8005004E0DEF8005095435B
:1015F000CEF80050641C0A6832FA04F57FF41BAF81
:10160000BDE8F88F000401400000111000100240F6
:101610000000014000080140000C014000100140A2
:101620000014014000180140001C0140806808427D
:1016300001D00120704700207047C26821EA0203F0
:101640000A4043EA024101617047002A01D001616A
:1016500070470904016170470148806870470000C5
:101660005801002002488168027811448160704767
:101670005801002010B50748016841F010010160D1
:10168000052000F06BF80F2000F006F800F026F8B7
:10169000002010BD0020024070B504460D4D4FF4EF
:1016A0007A712878B1FBF0F00B490968B1FBF0F0D2
:1016B00000F032FB08B1012070BD102C07D20022CF
:1016C0002146501E00F02AF86C60002070BD0120F9
:1016D00070BD00005801002028000020704700283D
:1016E0000DDB00F01F02012191404009800000F154
:1016F000E020C0F88011BFF34F8FBFF36F8F7047AA
:10170000002809DB00F01F02012191404009800000
:1017100000F1E020C0F8001170470000F0B40D4661
:101720000D4B1B68C3F30223C3F10704042C00D93B
:101730000424191D072901D2002300E0DB1E012625
:1017400006FA04F1491E294099409E40761E164033
:101750003143F0BC02F006BA0CED00E000F00701E6
:10176000054A10684FF6FF03184040EA012003497C
:1017700008431060704700000CED00E00000FA051F
:101780002DE9F04704460D46002C17D0DFF83081D4
:10179000D8F8000000F00700A84211D2D8F80000E5
:1017A00020F007002843C8F80000D8F8000000F037
:1017B0000700A84204D00120BDE8F0870120FBE724
:1017C0002068404E810712D5400703D5706840F469
:1017D000E06070602078000703D5706840F46050C6
:1017E00070607068A16820F0F00008437060207895
:1017F000C0072CD06068012806D0022809D03168C3
:1018000089070BD40120D7E73168890306D401206A
:10181000D2E73168890101D40120CDE7716821F058
:10182000030101437160FFF717FF074641F2883952
:1018300006E0FFF711FFC01B484501D90320BBE7B5
:101840007068616800F00C00B0EB810FF1D1D8F83E
:10185000000000F00700A8420ED9D8F8000020F0E0
:1018600007002843C8F80000D8F8000000F007007F
:10187000A84201D001209FE72078400705D5706875
:10188000E16820F4E060084370602078000706D526
:101890007068216920F4605040EAC100706000F077
:1018A0003FF87168084AC1F30311515CC840074909
:1018B000086007480068FFF7EFFE00207CE70000A3
:1018C000002002400010024064730008280000203D
:1018D0005C010020014800687047000028000020DB
:1018E00000B5FFF7F7FF04494968044AC1F3022134
:1018F000515CC84000BD0000001002407473000835
:1019000000B5FFF7E7FF04494968044AC1F3C22163
:10191000515CC84000BD0000001002407473000814
:1019200085B014A090E80E00C068CDE902230191B3
:10193000049014A000680090134B5968134801F0FC
:101940000C02042A10D0082A0ED101A8C1F3834248
:10195000805CC9030AD55968C1F340411DF80110E4
:101960000A4A5043B0FBF1F005B0704708494843BC
:10197000FAE7000002030405060708090A0B0C0D2C
:101980000E0F1010010200000010024000127A0039
:1019900000093D002DE9F84F0446002C0ED02078B8
:1019A000D94DC0075ED06868C0F3810001280BD014
:1019B0006868C0F38100022803D00CE00120BDE874
:1019C000F88F6868C00306D5286880034AD5606828
:1019D000A8BB0120F3E76068B0F5803F11D0A8B143
:1019E000B0F5A02F1BD0286820F48030286028682C
:1019F00020F480202860606830B3FFF72DFE064693
:101A00001EE0286840F480302860F4E7286820F45D
:101A100080302860286820F480202860EBE7286860
:101A200040F480202860286840F480302860E2E795
:101A3000FFF712FE801B642802D90320BFE711E0E4
:101A400028688003F4D50DE0FFF706FE064606E0A1
:101A5000FFF702FE801B642801D90320AFE7286846
:101A60008003F5D42078DFF8A48280074FF0010AC4
:101A70004FF0000945D5686810F00C0F07D0686872
:101A8000C0F38100022812D16868C0030FD428680F
:101A9000800704D52069012801D001208FE728683C
:101AA000616920F0F80040EAC100286029E020695F
:101AB000B8B1C8F800A0FFF7CFFD064606E0FFF773
:101AC000CBFD801B022801D9032078E72868800716
:101AD000F5D52868616920F0F80040EAC100286067
:101AE0000FE0C8F80090FFF7B7FD064606E0FFF7E5
:101AF000B3FD801B022801D9032060E72868800716
:101B0000F5D42078000726D58148A16999B1C0F89D
:101B100000A0FFF7A1FD064606E0FFF79DFD801B34
:101B2000022801D903204AE7686A8007F5D5012019
:101B300001F0FAFC0FE0C0F80090FFF78DFD0646BB
:101B400006E0FFF789FD801B022801D9032036E754
:101B5000686A8007F5D42078400773D50026E869C5
:101B6000C00008D4E86940F08050E861E86900F0FE
:101B7000805000900126DFF89CB1DBF80000C00522
:101B800014D4DBF8000040F48070CBF80000FFF7BD
:101B900063FD074606E0FFF75FFDC01B642801D91F
:101BA00003200CE7DBF80000C005F4D5E06801284D
:101BB00012D0B0B105281DD0286A20F0010028629B
:101BC000286A20F004002862E06841F2883B28B3CC
:101BD000FFF742FD07461DE0286A40F00100286239
:101BE000F2E7286A20F001002862286A20F0040049
:101BF0002862E9E7286A40F004002862286A40F079
:101C000001002862E0E7FFF727FDC01B584501D916
:101C10000320D4E6286A8007F5D50DE0FFF71CFD08
:101C2000074606E0FFF718FDC01B584501D9032001
:101C3000C5E6286A8007F5D4012E03D1E86920F0B3
:101C40008050E861E069A0B36968C1F381010229AD
:101C500046D0022805D0C8F86090FFF7FDFC044686
:101C60003AE0C8F86090FFF7F7FC064606E0FFF799
:101C7000F3FC801B022801D90320A0E6286880011C
:101C8000F5D4206AB0F5803F05D16868A16820F4DA
:101C9000003008436860D4E908010843696821F40A
:101CA000741108436860C8F860A0FFF7D5FC0446CB
:101CB00007E026E0FFF7D0FC001B022801D9032033
:101CC0007DE628688001F5D51BE0FFF7C5FC001B09
:101CD000022801D9032072E628688001F5D410E0BB
:101CE00001280CD06868226A00F48031914204D146
:101CF000616A00F47010884203D001205FE6012081
:101D00005DE600205BE60000001002400000424259
:101D1000800442420070004010B5401EB0F1807F48
:101D200001D3012010BD4FF0E02460610F21601746
:101D300001F018FF0020A06107202061002010BDE5
:101D400010B50446002C03D094F83D0010B107E014
:101D5000012010BD002084F83C00204600F015F85A
:101D6000022084F83D00211D206801F005FD0120BE
:101D70003D3460726070A070E07020716071A0717D
:101D8000E07120722070002010BD704790F83D1067
:101D9000012901D001207047022180F83D1001681F
:101DA000CA6842F00102CA600068114988420ED038
:101DB000104988420BD0B0F1804F08D00E498842BC
:101DC00005D00E49884202D00D49884209D1816868
:101DD00001F00701062908D0016841F00101016006
:101DE00003E0016841F0010101600020704700003C
:101DF000002C014000340140000400400008004075
:101E0000000C00407047000070B50446226810685E
:101E1000D168526900F00F03002B08D1850606D562
:101E20008D0604D52046BDE8704001F036BD002B7C
:101E300060D002F0010301F490751D435AD0C5072C
:101E400005D0CD0503D5E56B45F00105E5634507F4
:101E500005D5D50703D0E56B45F00205E563850799
:101E600005D5D20703D0E26B42F00402E263020719
:101E700007D501F020021A4303D0E26B42F00802BA
:101E8000E263E26B002A2AD0800604D5880602D5D8
:101E9000204601F002FD20684069C0F38010E16B2C
:101EA000090700D400B3204601F0DCFC206841693A
:101EB000490615D5416921F040014161606B58B177
:101EC00015494163606BFFF7BFF9002807D0606BCD
:101ED000416BBDE8704008472046FFF793FF70BD97
:101EE0002046FFF78FFF70BD2046FFF78BFF0020D5
:101EF000E06370BD020606D50A0604D52046BDE89B
:101F0000704001F06FBD4006F3D54806F1D520467C
:101F1000BDE8704001F0B4BC5538000870B5044607
:101F2000002C04D094F83900002510B106E00120FF
:101F300070BD84F83850204600F022F8242084F840
:101F400039002068C16821F40051C160204601F0C9
:101F5000EDFC2068016921F490410161206841692C
:101F600021F02A0141612068C16841F40051C1603B
:101F7000E563202084F8390084F83A00002070BD21
:101F800010B586B000681E49884236D11D48816967
:101F900041F004018161816901F0040101918169CD
:101FA00041F004018161816901F0040101918169BD
:101FB00041F480418161806900F4804001904FF4D8
:101FC00000700290022003900120049003200590ED
:101FD0000D4C02A92046FFF71FFA2115029100219E
:101FE000039102A92046FFF717FA2520FFF788FB87
:101FF000032211462520FFF791FB06B010BD00001B
:1020000000380140001002400008014090F83A30CA
:10201000202B01D002207047F9B1F2B190F838308E
:10202000012B1CD081628285C2850021C1632222DE
:1020300080F83A2080F838100168CA6842F480724B
:10204000CA6001684A6942F001024A610068C168D9
:1020500041F02001C160002070470120704702203C
:102060007047000070B50446304920680026304DA6
:1020700088421AD129892F4B481C6A7880B228815E
:102080005A542E2A01D0FF2809D9184400F8016CAF
:1020900018783A2802D1581C03F07CFB2E81244981
:1020A0000122491C2448FFF7B1FF244920688842D7
:1020B00019D1E88801040CD41D49891C09780A2922
:1020C00001D0EE8005E040F40040E8801E20FFF7DC
:1020D00017FB1E20FFF703FB154917480122891C37
:1020E0004030FFF793FF1649206888421DD12A89A6
:1020F0002B79501C81B21348298183542E2B01D097
:10210000C82909D3014401F8016C01783A2902D1A8
:10211000401C02F0C9FF2E810549BDE87040064809
:102120000122091D8030FFF771BF70BD00380140EA
:102130004001002098180020981A00200044004018
:1021400000480040981900202DE9F84304460E4647
:1021500015461F4694F83900202802D00220BDE819
:10216000F883C6B1BDB194F83800012815D001201C
:1021700084F838004FF00009C4F83C90212084F81E
:102180003900FFF769FA8046A584E584A068B0F5B8
:10219000805F04D005E00120E1E70220DFE720694D
:1021A00020B13546002684F8389013E00025FAE780
:1021B0004346002280212046009701F042FC08B1EE
:1021C0000320CCE79DB1216815F8010B4860E08C35
:1021D000401EE084E08C0028EAD1434600224021E2
:1021E0002046009701F02DFC40B10320B7E736F8F8
:1021F000020B2168C0F308004860E8E7202084F85B
:1022000039000020ABE7000000680349884202D192
:102210000249012008707047004C00403E01002038
:10222000FEE7FEE7704770B505460C4603F0F4FD87
:10223000782003F015FE03F041FE1CB1402003F0AE
:102240000FFE02E0002003F00BFE03F037FE2846ED
:1022500003F006FE03F032FEBDE8704003F096BDC9
:102260007047000070B505460E461446002D06D096
:1022700046B11048807840B11220207070BD042013
:10228000207070BD0C20207070BD2A78012A08D003
:10229000022A06D0032A04D0042A02D0012020708A
:1022A00070BD1020FDF762FF6E61FDF76DFF00202D
:1022B000207070BD7001002010B500F01BF800F018
:1022C000C5FE00F0D3FE00F0E3FE00F093FE00F048
:1022D0005BFE00F06FFF00F095FF00F011FF00F0D3
:1022E00037FF00F073FC00F01DF8BDE81040FFF769
:1022F000B7BF000008494FF480700022401E04C19F
:102300000028FBD10549064821F007014160028001
:102310001021816070470000581B0020581F0020CA
:1023200064010020704700000449C879012804D1E5
:102330008878FF2801D2401C887070477001002007
:1023400070B5144CE079012822D11020FDF70EFF62
:102350000546A17809B1491EA170A07898B9E07826
:1023600088B900F099FF0C48627950F82210A162F8
:102370002079824207D0086C401C0864E068401C49
:10238000E060FDF736FF2846BDE87040FDF7FCBE73
:1023900070BD0000700100204824002070B5054683
:1023A0000E480078002801D0002070BD1020FDF7F5
:1023B000DDFE0B490C680CB162680A60FDF7E4FEB3
:1023C0004CB10120207000202081656005A0606173
:1023D000204600F0CFFD204670BD000072010020B5
:1023E000800100203F00000010B5094CE079012871
:1023F0000DD11020FDF7BAFEA17821B9E178FF29AF
:1024000001D2491CE170BDE81040FDF7BDBE10BD12
:102410007001002010B5114CE07901281CD110206A
:10242000FDF7A4FEA17819B1BDE81040FDF7ACBEE0
:10243000E17869B1491EC9B2E17019B1BDE8104037
:10244000FDF7A2BEFDF7A0FEBDE8104000F0FEBE05
:10245000BDE81040FDF798BE10BD000070010020DF
:1024600070B505460E480078002801D0002070BDE8
:102470001020FDF77BFE0B490C680CB162680A6006
:10248000FDF782FE4CB103202070258100206060A2
:1024900005A06061204600F06DFD204670BD000083
:1024A00072010020800100203F0000002DE9F0476C
:1024B000054689461446002D06D02878032806D004
:1024C00001202070BDE8F08704202070FAE728483A
:1024D000007810B102202070F4E72648007810B18F
:1024E0000D202070EEE71020FDF740FE07462889FA
:1024F000002630B1401E28813846FDF745FE267083
:10250000E0E7DFF87480D8F8000010F8381F41F0D9
:1025100001010170467040F8049C284600F004FD5B
:102520003846FDF731FE00F091FE1020FDF71EFE4B
:102530000746D8F8000090F8391099B1022913D055
:10254000294600F0C9FC0A202070D8F800001C3091
:10255000067746770660466086603846BDE8F047F5
:10256000FDF712BE2670F0E70E202070EDE70000A8
:1025700072010020730100209001002070B5044614
:10258000002C04D02078032803D0012070BD042043
:1025900070BD1020FDF7EAFD0546A07A60B100236A
:1025A00001221946204600F05DFC2846FDF7ECFDAF
:1025B00000F04CFE002070BD20894FF6FF7188426C
:1025C00006D2401C20812846FDF7DEFD002070BDAC
:1025D0002846FDF7D9FD332070BD000010B5094C29
:1025E000E07900280CD100F057FE6079207106498F
:1025F00051F82000A0622062BDE81040FDF7CDBD7B
:1026000010BD0000700100204824002010B50220F9
:1026100000F036FA1020FDF7A9FD094C0021E16118
:10262000FDF7B2FD642000F02BFA1020FDF79EFDAF
:10263000E169616101216170BDE81040FDF7A4BD51
:1026400070010020FEF7B1BD2DE9FF4F83B0824637
:10265000DDE91197DDE913868B461C463F2C03D933
:102660002A2007B0BDE8F08F1020FDF77FFD1D493F
:10267000097819B1FDF788FD3C20F2E71A4D55F8AD
:10268000241019B1FDF780FD2820EAE7012145F863
:102690002410FDF779FD32463946484600F00AFF1E
:1026A000334659465046059A00F05CF90146CDE99B
:1026B000007802964A462046109B00F0FDFD064633
:1026C0004EB11020FDF752FD002145F82410FDF712
:1026D0005BFD3046C5E7054800780128F9D100F0D8
:1026E000B5FDF6E7720100204824002077010020A4
:1026F000FEF75CBD2DE9F047054648480078002804
:1027000002D04020BDE8F0873F2D04D005D3FF2D37
:1027100003D02A20F6E73E20F4E71020FDF726FD3F
:102720000646FF2D03D13E48006890F83A503D4FD1
:1027300057F825405CB1012C0ED094F83C103A4A71
:1027400094F83D30505C9843505450B10FE03046FF
:10275000FDF71AFD4320D5E73046FDF715FD3D2076
:10276000D0E7324894F83E20017891430170E16946
:1027700011B1204600F0B0FB216A11B1204600F0F3
:10278000BEFBE06A08B100F023FC4FF00008C4F87B
:10279000348084F8388084F83980DFF8949099F890
:1027A0000000FF2802D2401C89F800003046FDF7E7
:1027B000EBFC00F055FB1020FDF7D8FC064699F81D
:1027C000000010B1401E89F80000204600F03CF8DF
:1027D00018490878401E087047F82580A06990B114
:1027E00061694161D4E9051088611348016861613C
:1027F000046012A060653046FDF7C6FC1048007802
:10280000012807D008E06069C0F818800D496069A8
:102810000860EAE700F01AFD002073E7720100206B
:102820009001002048240020A4010020760100200F
:102830007301002078010020940100203F00000077
:10284000770100209C010020FEF7B1BCFEF7B0BC70
:1028500070B505460E4614463F2D04D9FF2D02D013
:102860002A20207070BD2EB11548007828B11220A2
:10287000207070BD0C20207070BD1020FDF776FC1C
:102880000246FF2D03D10F48006890F83A500E48D9
:1028900050F82500432540B101280BD0466510466D
:1028A000FDF772FC0020207070BD1046FDF76CFC37
:1028B000257070BD1046FDF767FC257070BD0000E7
:1028C000720100209001002048240020FEF771BC16
:1028D000FEF770BC2DE9F04104460E463F2C04D9AA
:1028E000FF2C02D02A20BDE8F0814EB100203060DC
:1028F00070601020FDF73AFC0146FF2C02D005E085
:102900000920F0E71548006890F83A40144850F85C
:10291000240058B101280ED0027CD20710D0002428
:10292000C76885680846FDF72FFC0FE00846FDF7ED
:102930002BFC4320D7E70846FDF726FC4320D2E7CF
:102940000846FDF721FC4520CDE7641C01CD002899
:10295000FBD03460381B70600020C4E79001002079
:1029600048240020121D22F007024FF0807342F825
:10297000043C42F8080C0C3A14481060A2F13400F0
:102980004FF0123303634FF00332C2624FF0023252
:1029900082625210426201626FF00201C1614FF027
:1029A000113181611101416159100161D100C16092
:1029B0004FF0073181604FF0063141604FF0053133
:1029C00040F804199100016070470000D9330008F5
:1029D00070B504463F2C04D005D3FF2C03D02A2029
:1029E00070BD472070BD1020FDF7C0FB01461F4899
:1029F000FF2C06D0006890F83A00A04206D10125CD
:102A000005E0006890F83A40012500E000251848EC
:102A100050F8240058B101280ED090F83C20154CF5
:102A200090F83D60A35CB343A35453B10FE0084654
:102A3000FDF7AAFB482070BD0846FDF7A5FB432023
:102A400070BD0D4A90F83E401378A343137010F800
:102A5000382F42F0080202700846FDF795FB012D61
:102A600001D100F0F3FB002070BD000090010020B8
:102A700048240020A401002076010020FEF79BBB23
:102A800070B5044612480078002820D1114800781B
:102A900000281CD1002C1AD01020FDF767FB0E492E
:102AA000096891F83C200D4D91F83D60AB5CB34353
:102AB000AB542BB90A4A91F83E501378AB431370CC
:102AC0004C63FDF761FBBDE8704000F0BFBB70BD1B
:102AD000720100207301002090010020A401002059
:102AE000760100202DE9F04100F056F81020FDF7A6
:102AF0003DFB284D296B491C2963FDF745FBE8790F
:102B0000012844D1687A0126002748B1012809D05C
:102B1000022809D001206F72002838D0EC6A32E018
:102B20000120F9E70020F7E701206E72F4E710209A
:102B3000FDF71CFB616B19B3491E616301BB94F87F
:102B4000381011F0370F06D001F0C80184F83810A2
:102B500084F8396001E084F8397094F83810090776
:102B60000ED494F83E10AA791143A971094A94F839
:102B70003C10343294F83DC0535C43EA0C03535488
:102B80006469FDF701FB94F83A003F28CFD1BDE816
:102B9000F08100007001002010B5FEF70DFB074921
:102BA0000888401C80B208800A2805D300200880CD
:102BB000BDE8104000F004B810BD00006401002022
:102BC00001480068FFF7DABCC401002038B54FF4B3
:102BD0002071244800F0E4FA4021234800F0E0FA94
:102BE000002000241F4B6425411C0A4689B200EBDB
:102BF000800003EBC00001EB810103EBC101057014
:102C000080F82540C16019A1016290B20F28EBD372
:102C100000EB800003EBC000057080F82540C46025
:102C200012A1016212480460124804801249102067
:102C30000880124803600120FFF712FC104C20604E
:102C40000020FFF70DFC0F4D28606A460EA120689A
:102C5000FFF708FB6A4611A12868FFF703FB00F0A5
:102C600027F838BD582E0020D83200203F00000041
:102C7000BC010020BA010020B8010020C8010020DA
:102C8000C0010020C401002075432F4F532D494936
:102C900020546D724C6F636B0000000075432F4F22
:102CA000532D494920546D725369676E616C000061
:102CB00000B587B080220B4BCDE901320320002103
:102CC000CDE903104FF6FD7000903D23064A0748FA
:102CD000FFF7BAFC06AA06A13D20FFF7B9FD07B031
:102CE00000BD0000D8300020D43200205D2D000847
:102CF00075432F4F532D494920546D720000000039
:102D0000032280F82520134A0129126814D0816912
:102D1000B1B111444161017D01F007010E4A02EB9E
:102D2000C10100230A687AB10860C26010618A8814
:102D3000521C8A8003617047C16911444161EAE70E
:102D4000C16911444161E6E70860C36001228A80DD
:102D5000F0E70000BC010020D832002008B5DFF801
:102D60006880DFF868901A4E6A460021D8F80000A3
:102D7000FFF79CFBFFF738FB3068401C306000F029
:102D8000070009EBC0000468022713E0E5686069EA
:102D9000316888420DD1204600F01CF894F82400D8
:102DA00002280CD084F82570626812B12046A16810
:102DB00090472C46002CE9D1FFF72CFBD4E70121EA
:102DC0002046FFF79DFFEFE7C4010020D832002026
:102DD000BC01002010B5017D01F007010C4A02EB97
:102DE000C10100240B68C268834203D10A602AB182
:102DF000146103E00369DA6002B11361012280F813
:102E00002520C46004618888401E888010BD0000B1
:102E1000D832002010B51020FDF7A8F90446FFF7BE
:102E200083FA2046FDF7B0F9FFF75CFEBDE81040DD
:102E3000FFF786BA4FF0E021401E4861074A10684C
:102E400020F07F4040F080501060086940F005009D
:102E50000861086940F002000861704720ED00E059
:102E600070470000F0B505468C46A87A1749085C03
:102E70002C18E47A095D01EBC001CEB2144951F877
:102E80002640002744F8347F44F80CCC2179914344
:102E900021716371343C09070BD40E4994F83E202C
:102EA0008B791A438A71343194F83D300A5C1A43A5
:102EB0000A542946204600F00FF8216A21B1204625
:102EC00000F01DF8276265623046F0BD3C8B0008BB
:102ED000482400207001002010B590F83C2090F8A4
:102EE0003D408B18DA7AA243DA72002A04D18A7A3A
:102EF00090F83E309A438A720021C16110BD70B5CE
:102F000010F83C4F85784678086809E00319DA7AAA
:102F1000B243DA7212B9827AAA438272091D086832
:102F20000028F3D170BD000030B5114C216AC86192
:102F300091F83C3000F10B0291F83D109D5C0D437F
:102F40009D54216A827A3C318B781A4382720878C8
:102F500004F134034D781A5C3C39AA431A54002A10
:102F600004D191F83E10A0798843A07130BD0000D3
:102F7000700100200022827200214318DA72491C7D
:102F8000C9B20829F9D3704710B550210D4800F097
:102F900007F900200B4B0024411C8AB203EB001000
:102FA00003EB02120470426007A2C26088B20428D8
:102FB000F2D303EB00100470446003A1C160034826
:102FC000036010BD302D00203F000000AC01002048
:102FD000426801680023002A05D0116001B14A60EF
:102FE0008068C3627047C26851600029F8D04B60A6
:102FF000F6E7000010B5F021114800F0D1F80020EC
:103000000F4B0024411C0A4689B200EB400003EB41
:10301000C00001EB410103EBC1010470416009A153
:10302000416190B20928EDD300EB400003EBC000F2
:103030000470446003A141610348036110BD0000B6
:10304000581F00203F0000007001002006480021AA
:1030500001638170C1700172C171C160C161816120
:10306000416141708172704770010020074B00215F
:103070009971002003F134021154401CC0B2082899
:10308000FAD3197159719962196270477001002061
:1030900010B54FF4FD61164800F082F84FF48071CE
:1030A000144800F07DF80020114B411C0A46C9B2BB
:1030B000C0EBC00404EB001003EB8000C1EBC104C3
:1030C00004EB011103EB810141610BA14165D0B219
:1030D0001528EAD3C0EBC00101EB001003EB800020
:1030E0000021416104A242650448C162436210BDEF
:1030F00048250020482400203F00000070010020E7
:1031000000B587B080220B4BCDE9013203200021AE
:10311000CDE903104FF6FF7000903F23064A0748A1
:10312000FFF792FA06AA06A13F20FFF791FB07B02E
:1031300000BD00004822002044240020BD330008C8
:1031400075432F4F532D49492049646C6500000099
:1031500000B587B080220B4BCDE90132032000215E
:10316000CDE903104FF6FE7000903E23064A074853
:10317000FFF76AFA06AA06A13E20FFF769FB07B02F
:1031800000BD00004820002044220020F133000848
:1031900075432F4F532D494920537461740000002B
:1031A000002203E000F8012B491E89B20029F9D161
:1031B0007047000010B578210F48FFF7F1FF00209D
:1031C0000D4A00EB400102EBC101401C00EB400343
:1031D00002EBC3034B6009A34B6180B20428F0D318
:1031E00000EB400002EBC0000021416003A14161FF
:1031F0000348026010BD0000802D00203F00000049
:10320000B001002010B560210E48FFF7C9FF002073
:103210000C4B411C0A4689B200EB400003EBC00096
:1032200001EB410103EBC101016090B20328F0D32F
:1032300000EB400003EBC000002101600248036086
:1032400010BD0000F82D0020B401002070B5102042
:10325000FCF78CFF05460E4CA07898B9E07888B949
:1032600000F01AF80B48627950F82210A162207918
:10327000824207D0086C401C0864E068401CE06093
:10328000FCF7B7FF2846BDE87040FCF77DBF0000A3
:1032900070010020482400200649054A8879105C06
:1032A00001F134031B5CD25C02EBC0004871704733
:1032B0003C8B0008700100202DE9F05F0546DDE938
:1032C0000AAB0E46904699461020FCF74FFF384F48
:1032D0007C6A002C67D0203454F80C1C7962FCF70F
:1032E00053FF44F8206CA576002626766676666144
:1032F00044F81CBC44F814AC44F8188C0C9824F81E
:10330000100C24F80E9CE677E808207705F00701FA
:10331000E176012303FA00F2A27703FA01F2627761
:1033200044F8046C26606660E660A6602662A662C9
:103330006662E66226631FA06063203C002004EB07
:1033400080018E65401CC0B20028F8D02046FFF7EF
:1033500079F91020FCF70AFF174941F82540FCF7DE
:1033600013FF2046FFF7C4F91020FCF7FFFE0146CB
:10337000F86A6061A66100B18461FC623C34BA798C
:10338000A0781043B8710A4A207834326478135C0C
:1033900023431354387A401C38720846FCF7F4FE75
:1033A0000020BDE8F09FFCF7EFFE4220F9E70000A7
:1033B000700100203F00000048240020054C102030
:1033C000FCF7D4FEE169491CE161FCF7DDFEFFF783
:1033D0003DFAF4E77001002010B504480068FFF7DB
:1033E00075FABDE81040FF20FFF784B99001002076
:1033F000214C02E0C820FFF743FB60780028F9D099
:1034000060696426B0FBF6F06061002518B925708C
:10341000FF20FFF7DDFA1020FCF7A8FE61696422A7
:103420005143E161FCF7B0FE0120FFF729FB1020BA
:10343000FCF79CFEE561FCF7A7FE6420FFF720FB8C
:103440001020FCF793FEE169A161FCF79DFED4E931
:103450000501B1FBF0F040B2C0F1640040B20028B9
:1034600001DB207003E02570B1FBF6F06061FFF72F
:103470002FFA00F003F8D7E7700100207CB5002494
:103480000B4D69462046FFF725FA58B955F8241028
:1034900041B1012906D0D1E9020200EB8200C864E3
:1034A00001980865641CE4B23F2CEAD97CBD000099
:1034B00048240020D30707D0920705D5002201E059
:1034C000491E04C00029FBD17047000010B586B02A
:1034D0001348816941F004018161806900F00400B2
:1034E0000190E0200290012003900020049002202F
:1034F00005900C4C02A92046FDF78EFF01222021E9
:103500002046FEF7A2F8012240212046FEF79DF852
:10351000012280212046FEF798F806B010BD000079
:10352000001002400008014008B507494FF4FA5264
:103530000968B1FBF2F14143009100BF0098411EC0
:103540000091FAD208BD0000280000203EB5144CBE
:1035500020684068C00705D003F0C6F820686FF007
:103560000101416020684168890710D56FF00201B0
:1035700041600B481430427881780378CDE90032FD
:103580000291C3798279818806A000F0B3FA21689C
:103590006FF004004860206841688906FCD53EBD94
:1035A000D4110020416C61726D2054696D653A251B
:1035B000642D25642D25642025643A25643A25640C
:1035C0000A0000002DE9F04385B0224CA06940F0CC
:1035D0002000A061A06900F0200000906515019511
:1035E00001260296002703974FF00208CDF81080BD
:1035F000DFF8649001A94846FDF70EFFA06940F08E
:103600004000A061A06900F0400000904FF4284005
:10361000019002960397CDF81080104C01A9204626
:10362000FDF7FAFE012229464846FEF70EF8012270
:10363000D1022046FEF709F8012251032046FEF789
:1036400004F80122D1032046FDF7FFFF05B0BDE8D5
:10365000F0830000001002400014014000180140F7
:103660007047000010B505480078012801D1FFF728
:10367000D1FBBDE81040FDF7F5BF00007701002049
:103680007047000070B50D4C20680069C043C0074A
:1036900012D10B4D40212846FDF7CFFF402128468F
:1036A000FDF7C4FF012803D106480188491C0180A9
:1036B00021686FF00100086170BD00003C1200201D
:1036C000000801400200002070B50D4C2068006920
:1036D000C043C00712D10B4D20212846FDF7ADFF96
:1036E00020212846FDF7A2FF012803D106480188C2
:1036F000491C018021686FF00100086170BD000065
:10370000F411002000080140000000200748006874
:103710000169C943C90707D105490A8842F4004233
:103720000A806FF00101016170470000CC12002097
:103730004601002070B50D4C20680069C043C007E9
:1037400012D10B4D80212846FDF777FF80212846B6
:10375000FDF76CFF012803D106480188491C018050
:1037600021686FF00100086170BD00008412002024
:1037700000080140040000202DE9F04102681D4DC1
:103780001D4E1E4FDFF878C01E4B4FF08048A842F8
:1037900009D0984207D0404505D0B04203D0B84286
:1037A00001D0604503D122F070044A682243A84248
:1037B00009D0984207D0404505D0B04203D0B84266
:1037C00001D0604503D122F44074CA6822434C6999
:1037D00022F08002224302608A68C2620A68826222
:1037E000A84201D0984201D10969016301214161D8
:1037F000BDE8F081002C01400004004000080040BA
:10380000000C00400034014010B504462046FCF78F
:1038100059FD214682B2BDE810404FF0FF33014808
:10382000FEF792BCD81A00200148FEF7EDBA00005E
:103830001417002010B504462046FCF743FD21462E
:1038400082B2BDE810404FF0FF330148FEF77CBC68
:103850001417002010B5406A0021C185C184FEF70D
:10386000D1FA10BD0168CA6822F49072CA6001687A
:103870004A6922F001024A61202180F83A1070471B
:1038800010B50168CA6822F04002CA60202180F8A1
:103890003910FEF7B9FC002010BD10B590F83A10B1
:1038A000222901D0022010BD82684FF480539A4231
:1038B00001D1016921B1816A9A421DD052B10BE058
:1038C000816A02685268C2F308020A80816A891C10
:1038D000816209E002697AB10268526802F07F02EF
:1038E0000A70816A491C8162C18D491E0904090C54
:1038F000C18505D0002010BD026852680A70F0E74B
:103900000168CA6822F02002CA600168CA6822F40D
:103910008072CA6001684A6922F001024A6120216E
:1039200080F83A10FEF79EFB002010BD70B50446EB
:1039300020680169E26821F4405111430161A168E6
:1039400020690143606901432068C26841F20C6349
:103950009A430A43C26020684169A26921F4407118
:10396000114341611E492068884202D1FDF7C8FF1A
:1039700001E0FDF7B5FF00EBC00101EB001061684D
:1039800064228900B0FBF1F3B3FBF2F36FF0180689
:103990007343B0FBF1F5B0FBF1F605EB8305322381
:1039A00003EB0515B5FBF2F5B6FBF2F605F0F005F5
:1039B00005EB0615B0FBF1F6B0FBF1F0B0FBF2F051
:1039C0006FF01801484306EB800003EB0010B0FBDA
:1039D000F2F0216800F00F002844886070BD0000FC
:1039E0000038014090F83910212901D00220704799
:1039F0008168B1F5805F01D1016961B1016A4A1C3A
:103A00000262026809785160C18C491E0904090CE0
:103A1000C1840AD013E0016A02680988C1F3080171
:103A20005160016A891C0162EEE70168CA6822F0F0
:103A30008002CA600068C16841F04001C160002096
:103A400070472DE9F04104460E4617469846069DFC
:103A50001DE0681C1BD02DB1FDF7FEFDA0EB08009A
:103A6000A84214D92068C16821F4D071C1602068CF
:103A7000416921F001014161202084F8390084F876
:103A80003A00002084F838000320BDE8F081206867
:103A9000006836EA000004D00020B842D9D00020E7
:103AA000F3E70120F9E7000010B5FEF73DFC0348FD
:103AB000FEF7AAF9BDE81040FEF742BC981A0020B4
:103AC00010B5FEF731FC0348FEF79EF9BDE8104043
:103AD000FEF736BCD81A002010B5FEF725FC0348C7
:103AE000FEF792F9BDE81040FEF72ABC181B002033
:103AF000FEE700000FB4054B10B503A9044A029875
:103B000000F08EF910BC5DF814FB00008D5B00081E
:103B10004C0100200FB4084B10B504A902AA039869
:103B200000F07EF9044602A9002000F0FCFC2046CB
:103B300010BC5DF814FB000027450008490050EA5E
:103B4000C12018BF04204A0D18BF40F0010040F208
:103B5000FF72B2EB515F08BF40F00200012808BFBE
:103B6000052070470907090E002804DB00F1E0205A
:103B700080F80014704700F00F0000F1E02080F89A
:103B8000141D70472DE9F0414F1E00EBC70104469C
:103B9000D1E9000115461E4637F006020DD02A462F
:103BA0003346FCF7B1FF7F1E04EBC703D3E90023C4
:103BB000FCF794FC37F00602F1D1022F25D0042F38
:103BC00013D0062F18BFBDE8F0812A463346FCF714
:103BD0009BFFD4E90A23FCF781FC2A463346FCF715
:103BE00093FFD4E90823FCF779FC2A463346FCF717
:103BF0008BFFD4E90623FCF771FC2A463346FCF719
:103C000083FFD4E90423FCF769FC2A463346FCF71A
:103C10007BFFD4E90223FCF761FC2A463346FCF71C
:103C200073FFD4E90023BDE8F041FCF757BC012243
:103C3000FCF76ABDFCF752BC002213461046114641
:103C4000FCF7F3BC024A00201107FCF75DBD000041
:103C500001FDFFFF0148006870470000D00100200F
:103C600002E008C8121F08C1002AFAD17047704745
:103C7000002001E001C1121F002AFBD170470000A3
:103C80000149086070470000D00100202DE9FF5F66
:103C900082B00021DDE90430020DDDF840B00343BD
:103CA00018D044F61050A2F2FF3242431514119876
:103CB00001281FD0A5EB0B00401C5FEA000A4FF063
:103CC00000064E4FDFF83891B046504615D5CAF180
:103CD000000413E0119801244AA3012801D16FEADE
:103CE0000B010298119AC0E90031C0E9024206B006
:103CF000BDE8F09FCBF10000DFE704460021404A19
:103D0000491842EB0450CDE9001012E0E00707D05B
:103D100032463B4640464946FCF7F6FE8046894619
:103D200032463B4610461946FCF7EEFE06460F4665
:103D30006410002CEAD1DDE90401DDE90023BAF1C9
:103D4000000F06DAFCF7E0FE42464B46FCF7DCFECD
:103D500005E0FCF76AFC42464B46FCF766FC04466D
:103D60000E460022284BFCF751FD03D84FF0FF30E0
:103D7000014607E00022254B20463146FCF7AEFB0A
:103D8000FCF7C8FF102409E0002C0ADB0A220023FC
:103D9000FCF786FD039B30321A55641E50EA01027F
:103DA000F2D1641C039AC4F111031444119A012A3C
:103DB00003D0012208430DD10AE0084304D00020BB
:103DC0004FF0110B119072E7A3EB0B056D1E0DE088
:103DD0005B4504DD4FF0000205F1010504E003DA64
:103DE0004FF00002A5F10105002AECD002981199CC
:103DF000C0E90231C0E9004579E700000000144045
:103E00000000F03F300000000000F0430000E03F01
:103E100030380A2801D20120704700207047000086
:103E20002DE9FF4F95B09A46884606460025EEE1FB
:103E3000252877D100242746F94A0121039400E080
:103E4000044316F8013F203B01FA03F01042F7D17A
:103E500030782A2811D06FF02F033078A0F130028B
:103E6000092A16D8039A44F0020402EB820203EBFB
:103E700042021044761C0390EFE758F8042B03929B
:103E8000002A03DA504244F40054039044F0020440
:103E9000761C30782E2816D116F8010F44F0040451
:103EA0002A280DD06FF02F023078A0F13003092BB3
:103EB00009D807EB870302EB4303C718761CF3E727
:103EC00058F8047B761C30786C280FD006DC4C2820
:103ED00017D068280DD06A2814D104E0742810D0B7
:103EE0007A280FD10DE044F400140AE044F4801461
:103EF00001E044F440147278824202D104F5801447
:103F0000761C761C307866280BD013DC582877D0C6
:103F100009DC002875D04528F6D04628F4D047287B
:103F20001AD193E118E0632835D0642879D0652848
:103F300012D18BE1702873D008DC6728F1D0692892
:103F40006FD06E280DD06F2806D1ACE073282CD02E
:103F5000752874D0782853D05246179990476D1C15
:103F600054E1C4F30250022809D003280DD0D8F838
:103F7000001004280DD00D6008F1040846E1D8F8BF
:103F80000010EA17C1E90052F6E7D8F800100D80DA
:103F9000F2E70D70F0E718F8041B8DF80010002010
:103FA0008DF80100EB46012003E058F804BB4FF008
:103FB000FF3061074FF0000102D40DE009F101016B
:103FC0008946B9420FDA8145F8DB1BF80910002950
:103FD000F4D108E009F1010189468142FADB1BF8BE
:103FE00009100029F6D103985346A0EB0907214692
:103FF0003846179A00F080FA284400EB090507E0DC
:1040000044E008E10DE01BF8010B52461799904778
:10401000B9F10109F7D2534621463846179AF2E022
:1040200039E00A21C4F302524FF0000B0091022A3A
:1040300006D058F8040BC117032A09D00AE023E080
:1040400008F1070020F00702F2E80201904605E0BF
:1040500000B2C117042A01D140B2C117002906DA03
:104060000A460021404261EB02012D2202E02205B6
:1040700004D52B228DF80420012203E0E20701D0B1
:104080002022F7E7914657E00A2100E010214FF087
:10409000000B00910BE010214FF0000B44F00404E2
:1040A0000827009103E008204FF0000B0090C4F3B4
:1040B0000252022A05D058F8040B0021032A08D026
:1040C00008E008F1070020F00702F2E8020190463C
:1040D00003E080B2042A00D1C0B24FF000092207E9
:1040E0002AD53278702A07D0DDF800C08CF0100C89
:1040F0005CEA0B0C05D00EE040228DF80420012272
:1041000008E050EA010306D030238DF804308DF822
:10411000052002229146009B83F0080353EA0B031B
:104120000AD150EA010201D1620705D530228DF88B
:1041300004204FF001097F1E3278582A04D039A29A
:104140000C920CAA02920BE03BA2F9E75B46009AA4
:10415000FCF7A6FB0C9B9B5C029A521E029213700A
:1041600050EA0102F2D1029804A9081A00F1200BCA
:10417000600702D524F4803400E001275F4502DDAA
:10418000A7EB0B0000E0002000EB0B010090039870
:104190004944401A0390E00306D453462146179A37
:1041A000039800F0A9F90544002706E001A852464B
:1041B000C05D179990476D1C7F1C4F45F6DBE003EF
:1041C0000CD553462146179A039800F095F90544FB
:1041D00004E030205246179990476D1C0099481E04
:1041E00000900029F5DC08E0029802995246007818
:1041F000491C0291179990476D1CBBF10001ABF16E
:10420000010BF1DC5BE100F065F90544761C3078C8
:1042100000287FF40DAE19B02846BDE8F08F0000ED
:10422000092801003031323334353637383961628C
:104230006364656600000000303132333435363750
:10424000383941424344454600000000600700D42D
:10425000062708F1070020F00700F0E80223804657
:1042600003F0004C5FEA0C0001D097A009E02005A4
:1042700001D596A005E0E00701D095A001E0AFF2DE
:104280004C001390307823F0004365280CD006DCF6
:10429000452809D046281DD047287FD13BE0662815
:1042A00018D067287AD136E00021112F01DB1120C8
:1042B00000E0781CCDE9000104A90CA8FFF7E6FC9A
:1042C000DDE90D010C9A4FF0000B07F10109109286
:1042D00000914EE04FF000400097CDE9011004A995
:1042E0000CA8FFF7D3FCDDE90D020C9B0F994FF0F2
:1042F000000B91461093009211B9791C00EB010953
:10430000B7EB090003D4C0F1FF3B07F10109A9EBAA
:104310000700019042E0012F00DA01270021112F50
:1043200001DD112000E03846CDE9000104A90CA808
:10433000FFF7ACFCDDE90D010C9A00914FF0000B8A
:10434000B946109221070FD4009A4A4503DA9146E4
:1043500001E0A9F10109B9F1010F05DD109AA9F1F8
:104360000101515C3029F4D0B84202DA10F1040F97
:1043700003DA0121CDE9011010E0002803DC8344B9
:10438000A9EB000102E0411C494500DD8946A0EB94
:104390000B00401C01904FF000400290200705D414
:1043A0000198484502DB4FF0FF30019000208DF866
:1043B0004B0002980DF14B07B0F1004F25D00220C1
:1043C0000C902B200D90029800280CDA40420290AD
:1043D0002D200D9007E00A210298FCF74BFA3031AE
:1043E000029007F8011D0C99481E0C900029F2DC80
:1043F00002980028EFD1791E0D980870307800F0EF
:10440000200040F0450007F8020D11A8C01BC01D98
:1044100002901398007800B1012000EB0901019887
:1044200001EBE071029801440398401A401E03908A
:10443000E00306D453462146179A039800F05CF82F
:1044400005441398007818B15246179990476D1C8F
:10445000E00323D553462146179A039800F04CF801
:1044600005441BE0BBF1000F07DB0098584504DD55
:104470001098179910F80B0001E017993020524658
:10448000904701980BF1010B401E05F101050190C9
:1044900004D12E205246179990476D1CB9F10001A6
:1044A000A9F10109DEDC05E017F8010B5246179966
:1044B00090476D1C0299481E02900029F4DC534677
:1044C0002146179A03989EE62D0000002B0000005D
:1044D000200000002DE9F041044600251E46174645
:1044E000880404D405E039462020B0476D1C641EC2
:1044F000F9D52846BDE8F0812DE9F04104460025B4
:104500001E469046C80301D5302700E020278804C6
:1045100004D505E041463846B0476D1C641EF9D508
:104520002846BDE8F0810A68531C0B601070704784
:104530002DE9F0411E481D4E31460068FBF752FF41
:104540006FF004073946FBF7BDFF1A490968884632
:10455000FBF77AFFFCF701F985B217480580174889
:1045600031460068FBF73EFF3946FBF7ABFF41469B
:10457000FBF76AFFFCF7F1F884B211480480114898
:1045800031460068FBF72EFF3946FBF79BFF41469B
:10459000FBF75AFFFCF7E1F883B20B480380224691
:1045A0002946BDE8F04109A0FFF7A4BA0000104178
:1045B0001C0000201801002006000020240000201C
:1045C00008000020200000200A0000206E6F726D9D
:1045D000616C697A6564206C6F775F70756C736568
:1045E0003A2025642C20726F745F70756C73653A85
:1045F0002025642C20686967685F616C6C5F70754A
:104600006C73653A2025640D0A0000002DE9F84F0F
:104610008246884691469B46734C50462146FBF79E
:10462000E1FE6FF004073946FBF74CFF6F4909685C
:104630000091FBF709FFFCF790F86D4D28802146AB
:104640004046FBF7CFFE3946FBF73CFF0099FBF7EE
:10465000FBFEFCF782F8674E308021464846FBF7A8
:10466000C1FE3946FBF72EFF0099FBF7EDFEFCF784
:1046700074F8614F38800024BBF17E5F18D11AF0C6
:10468000FF4F15D0002201215C48FCF7DEFF4FF4FC
:10469000FA7001F097F81D20FDF732F858482A8883
:1046A0000188914204D104802C801D20FDF717F869
:1046B0000A98B0F17E5F1AD118F0FF4F17D0002290
:1046C00001215048FCF7C1FF4FF4FA7001F07AF86D
:1046D0003220FDF715F84C483A880188914206D1FE
:1046E00004803C80BDE8F84F3220FCF7F8BF0B98FF
:1046F000B0F17E5F18D119F0FF4F15D000220221D2
:104700003E48FCF7A2FF4FF4FA7001F05BF81C2062
:10471000FCF7F6FF3D4832880188914204D10480BD
:1047200034801C20FCF7DBFF1BF0FF4F18D11AF080
:10473000FF4F15D0012211463048FCF786FF4FF499
:10474000FA7001F03FF81D20FCF7DAFF2C482A88A8
:104750000188914204D104802C801D20FCF7BFFF0A
:104760000A9810F0FF4F18D118F0FF4F15D0012212
:1047700011462448FCF769FF4FF4FA7001F022F863
:104780003220FCF7BDFF20483A880188914204D1CD
:1047900004803C803220FCF7A2FF0B9810F0FF4F02
:1047A00018D119F0FF4F15D0012202211348FCF750
:1047B0004CFF4FF4FA7001F005F81C20FCF7A0FF45
:1047C000124832880188914204D1048034801C2030
:1047D000FCF785FF3B883288298801B00CA0BDE832
:1047E000F04FFFF787B900000000104118010020CA
:1047F00006000020080000200A000020001C0140E4
:1048000000000020001801400400002002000020E9
:10481000696E707574206C6F775F70756C73653A34
:104820002025642C20726F745F70756C73653A205C
:1048300025642C20686967685F616C6C5F70756CBB
:1048400073653A2025640D0A000000002DE9F04D43
:104850008D4F21F0004A86B005460C46BA452ADB4A
:10486000AAEB070028430AD08848824501DC1AD108
:10487000CDB106B02846BDE8F04DFFF7D8B9844A5F
:10488000844B2846FCF740F907460E46824A834B84
:1048900028462146FCF738F906B03A463346BDE8CB
:1048A000F04DFBF71BBE0120FFF7EAF906B0BDE8AB
:1048B000F04DFFF7C1B97A48824542DABAF1795F23
:1048C0000BDA2846FFF73AF9042808BFFFF7BAF9D0
:1048D000284606B02146BDE8F08D2A460B46104614
:1048E000FCF712F9834602466E480E460B46062137
:1048F0007844FFF747F95A463346FCF705F98046F6
:1049000069488A465A46334604217844FFF73AF903
:104910005A463346FCF7F8F800223B46FBF7DEFD2B
:1049200002460B4640465146FBF77FFE2A46234689
:10493000FCF7EAF806B02A462346BDE8F04DFBF73F
:10494000CDBD284624F0004100223D463B46FBF702
:1049500069FE4FF0FF32FBF7D7FE0646024653488A
:104960000F460B4606217844FFF70CF932463B46CA
:10497000FCF7CAF8CDE900014D4832463B46042118
:104980007844FFF7FFF832463B46FCF7BDF80022BB
:104990002B46FBF7A3FD834602913046394602F0D1
:1049A000A7F9804643480D46504517DCDDE9000174
:1049B0005A46029BFBF739FE42462B46FCF7A4F809
:1049C00042462B46FBF78AFD0122FBF79DFE304A4B
:1049D000304BFBF724FE304A304B4CE04FF0000ADE
:1049E00052460B464046FBF779FDCDE9031052468F
:1049F0002B4610461946FCF787F832463B46FBF734
:104A000011FEDDE90332FBF710FE06460F46DDE935
:104A100000015A46029BFBF708FE834600910122E3
:104A200030463946FBF770FE194A1A4BFBF7FAFD80
:104A300006460F46012240462946FBF765FE5A46C8
:104A4000009BFCF761F832463B46FBF7E8FD064663
:104A50000F46012250462946FBF756FE0E4DDFF861
:104A600058802A464346FBF7DDFD32463B46FBF7BE
:104A7000D9FD2A464346FBF7D5FD002CD8BF81F06F
:104A8000004106B0BDE8F08D0000F03F0000F07F6F
:104A9000075C143326A6913C182D4454FB21F93FA2
:104AA0000000E03F4C43000062430000D64200009B
:104AB000EC4200003333EF3FFB21E93F2DE9F84F93
:104AC00004460D4621F0004000917349814211DCFB
:104AD0007249884201DC06D12CB120462946BDE846
:104AE000F84FFFF7A4B86E48002DCCBF6D496E4952
:104AF000BDE8F88F6D49814211DD6D498142D8BF13
:104B00004FF0FF366DDD20462946FFF717F80428E1
:104B100008BFFFF797F820462946BDE8F88F65499A
:104B2000654F25F00045814233DD6449814219DD3E
:104B3000002632464FF0804320462946FBF7CEFC44
:104B400080468A46012220462946FBF7DDFD0022E9
:104B50003B46FBF764FD42465346FBF766FD0446C1
:104B60000D463EE001260022BA463B462046294635
:104B7000FBF7B4FC80460F460022534620462946E8
:104B8000FBF74DFD42463B46FBF74FFD04460D4605
:104B900027E04B4981421BDDDFF828A102260022D5
:104BA000534620462946FBF7AFFF00223B46FBF762
:104BB00095FC80460F460022534620462946FBF7C7
:104BC0002EFD42463B46FBF730FD04460D4608E00D
:104BD000032622462B4600203B49FBF726FD0446D0
:104BE0000D4622462B4610461946FBF78DFF8B4695
:104BF000824602460B46FBF787FF074602463348CC
:104C000088460B4606217844FEF7BCFF52465B46B9
:104C1000FBF77AFF82462E488B463A4643460521EB
:104C20007844FEF7AFFF3A464346FBF76DFF024676
:104C30000B46002E504659460CDAFBF74FFC224635
:104C40002B46FBF761FF01B022462B46BDE8F04F33
:104C5000FBF7E8BCFBF742FC22462B46FBF754FF70
:104C60001C4A7A4402EBC603D3E90023FBF7D7FCC6
:104C700022462B46FBF7D3FC174A7A4402EBC603C5
:104C8000D3E90023FBF7CEFC009A002AB8BF81F0DD
:104C90000041BDE8F88F0000000010440000F07FE4
:104CA000182D4454FB21F93FFB21F9BF0000DC3FE4
:104CB0000000203E0000F33F0000F03F0000E63F10
:104CC000008003400000F83F0000F0BFEE4000000D
:104CD000AC4000004A400000124000002DE9F04DB9
:104CE0009446CCF1000423F000464CEA0404594FEA
:104CF00046EAD4749A46884621F00042BC4206D85F
:104D0000454240EA050442EAD474BC4204D9BDE8F5
:104D1000F04D6246FEF78EBFAAF14055A5F17F65C2
:104D200055EA0C040BD0022404EAAA744A4DDFF8B9
:104D30002CE144EAD87452EA000B04D00CE0BDE840
:104D4000F04DFFF7BBBE002C14BF012CBDE8F08D69
:104D5000022C30D0032C32D056EA0C0B0AD0BE42C3
:104D600020D1BA4209D126F0804622F08042334653
:104D7000114617E000291ADB25E0DFF8E4B0FB4418
:104D8000002C04BFDBE90001BDE8F08D012C02BF5F
:104D9000DBE9000181F00041BDE8F08D022C0AD072
:104DA000032C0CD0BA4212D1B8F1000F0BDA2A480A
:104DB0002C49BDE8F08D28462B49BDE8F08D2846EA
:104DC0007146BDE8F08D24482849BDE8F08D921B5E
:104DD00012153C2AC4BF204F244E10DCBAF1000F3C
:104DE000BEBF12F13C0F00273E4608DB6246FBF7D0
:104DF0001CFC21F00041FFF761FE07460E4694B10E
:104E0000012C08BF86F000460DD0194A194B022C20
:104E10003846314615D0FBF702FC2A46BDE8F04D76
:104E2000114BFBF7FCBB0022134638463146FBF71B
:104E3000D5FC04BF0220FEF723FF38463146BDE80B
:104E4000F08DFBF7ECFB2A46BDE8F04D064BFBF777
:104E5000E9BB00000000F07F182D4454FB2109C07D
:104E6000A63F0000FB21F9BFFB210940FB21F93FD0
:104E7000075C143326A6A13C30B583B00446FEF788
:104E8000E9FE05460020CDE90000024621466846BD
:104E9000FBF773FD2846FEF7F3FEDDE9000103B0E2
:104EA00030BD01F04BBF00002DE9F84FDFF8B491A1
:104EB000DFF8B481DFF8B4B1DFF8B4A1D8F80C1092
:104EC0000846FBF78FFAD8F8081005460846FBF7A6
:104ED00089FA2946FBF72EFAFBF76CFC01F008FF74
:104EE000FBF7ACFC0546D8F810100846FBF77AFA39
:104EF000064629462846FBF775FA3146FBF71AFAAB
:104F0000FBF758FC01F0F4FEFBF798FC0746284637
:104F1000FBF750FC0091064621F00041554A4B46F4
:104F2000FBF75CFC03D20020CBF8000011E0D8F8BE
:104F30000800FBF73FFC04460D46D8F80C00FBF7D1
:104F400039FC22462B46FFF7C9FEFBF777FCCBF86E
:104F500000003846FBF72EFC4FF0FF370D460446A5
:104F60003A46FBF7D1FB0022434BFBF75EFBFFF712
:104F70006DFC0122FBF7C8FBFBF760FCC8F80400DE
:104F8000204625F000413B4A4B46FBF727FC03D265
:104F90000020CAF8000023E0D8F80400FBF70AFC60
:104FA000DFF8D890364B4A46FBF73CFB3A46FBF716
:104FB000ABFB04460D46009FD8F81000FBF7FAFB48
:104FC00032463B46FFF78AFE22462B46FBF786FA1F
:104FD0004A462C4BFBF723FBFBF730FCCAF80000DA
:104FE000DBF80000FBF7E6FB244C21F000412246F1
:104FF000244BFBF70BFC07D2234A2449DBF80000C3
:1050000001F012F9CBF80000DAF80000FBF7D2FB50
:1050100021F0004122461E4BFBF7F8FB07D21A4A4B
:105020001A49DAF8000001F0FFF8CAF80000DAF8CF
:105030000010D8F80400FBF77DF90546154C2560F3
:105040002846FBF7B7FB21F00041134A134BFBF74F
:10505000DDFB05D2124A1349284601F0E5F820602D
:10506000BDE8F88FF7C6B03E1801002024000020EC
:105070001C0000208DEDB5A000005E404AD8124D06
:10508000FB210940FB21F93FDA0F493FDA0FC93F05
:10509000FB21E93F2000002087E5613352C1F03F4A
:1050A000920A063F920A863F2DE9F04107460A22FE
:1050B000FEA13846FBF70DF94FF07E544FF496767B
:1050C00000287AD00922FCA13846FBF702F9002813
:1050D00074D00A22FBA13846FBF7FBF800286ED0FB
:1050E0000922FBA13846FBF7F4F8002868D00A2211
:1050F000FAA13846FBF7EDF800287DD00922FAA185
:105100003846FBF7E6F8002877D00A22F9A138469E
:10511000FBF7DFF8FA4C002870D00B22F9A13846D3
:10512000FBF7D7F800286AD00A22FAA13846FBF725
:10513000D0F8FB4D002878D00B22FAA13846FBF7B7
:10514000C8F8002872D00A22FAA13846FBF7C1F845
:1051500000286CD00B22FAA13846FBF7BAF80028D9
:1051600066D00B22FAA13846FBF7B3F800287DD0B1
:105170000B22FBA13846FBF7ACF8002877D00B22B6
:10518000FBA13846FBF7A5F8002871D00B22FBA144
:105190003846FBF79EF800286BD00B22FAA1384660
:1051A000FBF797F8002874D00B22FAA13846FBF7DA
:1051B00090F800286ED00F2203E01CE02EE040E0C3
:1051C0004DE0F8A13846FBF784F84FF4FA74002854
:1051D0007ED00D22F8A13846FBF77BF8002878D066
:1051E0000922F9A13846FBF774F8002872D1BDE80E
:1051F000F04101F05BBA03E044E054E061E083E099
:10520000002223461146F34801F028FFF2A0FEF7E2
:1052100011FB3046BDE8F041FDF732BC00231A46D1
:105220001946F64801F01AFF03E08CE0AAE0C8E056
:10523000E6E0F3A0FEF7FEFA3046BDE8F041FDF7E8
:105240001FBC00222346F649104601F007FFF5A0D7
:10525000FEF7F0FA3046BDE8F041FDF711BC00233F
:105260001A46F849184601F0F9FE03E0E7E012E1BA
:1052700040E247E2F4A0FEF7DDFA3046BDE8F04137
:10528000FDF7FEBB00212346F74A084601F0E6FE83
:1052900001E03FE246E2F5A0FEF7CCFA3046BDE879
:1052A000F041FDF7EDBB0023F84A1946184601F01E
:1052B000D5FEF7A0FEF7BEFA3046BDE8F041FDF797
:1052C000DFBB002202212046FCF7BFF9002202E0EA
:1052D0003EE24DE25CE201212046FCF7B6F91C20DB
:1052E000FCF70EFA1D20FCF70BFA002202212046E3
:1052F000FCF7ABF9002201212046FCF7A6F9304665
:10530000BDE8F041FDF7BCBB012202212046FCF7BD
:105310009CF9012211462046FCF797F91C20FCF766
:10532000EFF91D20FCF7ECF9012202212046FCF7E1
:105330008CF9012211462046FCF787F93046BDE87A
:10534000F041FDF79DBB002201212846FCF77DF9C5
:10535000002201212046FCF778F93220FCF7D0F931
:105360001D20FCF7CDF9002201212846FCF76DF93C
:10537000002201212046FCF768F93046BDE8F041E3
:10538000FDF77EBB012211462846FCF75EF901229B
:1053900011462046FCF759F93220FCF7B1F91D20DF
:1053A000FCF7AEF9012211462846FCF74EF901221E
:1053B00011462046FCF749F93046BDE8F041FDF7BB
:1053C0005FBB002201212846FCF73FF900220221A1
:1053D0002046FCF73AF93220FCF792F91C20FCF742
:1053E0008FF9002201212846FCF72FF90022022123
:1053F0002046FCF72AF93046BDE8F041FDF740BBF6
:10540000012211462846FCF720F9012202212046FC
:10541000FCF71BF93220FCF773F91C20FCF770F93C
:10542000012211462846FCF710F9012202212046EC
:10543000FCF70BF93046BDE8F041FDF721BB002237
:1054400002212046FCF701F9002201212046FCF749
:10545000FCF8002201212846FCF7F7F81C20FCF795
:105460004FF93220FCF74CF91D20FCF749F90022D6
:1054700002212046FCF7E9F8002201212046FCF732
:10548000E4F8002201212846FCF7DFF83046BDE8A9
:10549000F041FDF7F5BA012202212046FCF7D5F8CC
:1054A000012211462046FCF7D0F801E16D6F7465CA
:1054B00072317269676874006D6F746572316C6502
:1054C000667400006D6F746572327269676874008B
:1054D0006D6F746572326C65667400006D6F746513
:1054E00072337269676874006D6F746572336C65CE
:1054F000667400006D6F74657231326C656674009D
:10550000001C01406D6F7465723132726967687496
:10551000000000006D6F74657231336C6566740055
:10552000001801406D6F7465723133726967687479
:10553000000000006D6F74657232336C6566740034
:105540006D6F7465723233726967687400000000B1
:10555000746F6765746865726C656674000000003E
:10556000746F6765746865727269676874000000BB
:105570006D6F7465723173746F7000006D6F746558
:10558000723273746F7000006D6F746F7233737466
:105590006F700000746F67657468657273746F7004
:1055A000000000006C6974746C656D6F746F725FDD
:1055B000746F7563680000006C6974746C656D6F5E
:1055C000746F725F7075740062656C745F6C656691
:1055D000740000000000C8C27472616E735F696E6F
:1055E00069743A2D3130302C302C303B6D6F74653E
:1055F000723172696768740D0A0000000000C842C9
:105600007472616E735F696E69743A3130302C3038
:105610002C303B6D6F746572316C6566740D0A00D9
:105620000000B4427472616E735F696E69743A30DF
:105630002C39302C303B6D6F74657232726967683B
:10564000740D0A00000048C27472616E735F696E67
:1056500069743A302C2D35302C303B6D6F74657287
:10566000326C6566740D0A000000A0427472616EAF
:10567000735F696E69743A302C302C38303B6D6F33
:105680007465723372696768740D0A00000020C186
:105690007472616E735F696E69743A302C302C2DB0
:1056A00031303B6D6F746572336C6566740D0A0042
:1056B000012211462846FBF7C8FF1C20FCF720F802
:1056C0003220FCF71DF81D20FCF71AF801220221F8
:1056D0002046FBF7BAFF012211462046FBF7B5FF33
:1056E000012211462846FBF7B0FF3046BDE8F041E5
:1056F000FDF7C6B91D20FBF7F2FF3046BDE8F041CB
:10570000FDF7BEB91C20FBF7EAFF3046BDE8F041CB
:10571000FDF7B6B93220FBF7E2FF3046BDE8F041B5
:10572000FDF7AEB900F0D0FF1C20FBF7D8FF3046E4
:10573000FDF7A6F93220FBF7D2FF3046FDF7A0F9BE
:105740001D20FBF7CCFF3046BDE8F041FDF798B9CE
:10575000642000F037F8012240F24C41002000F0B4
:1057600039FD01F033FC2046BDE8F04100F02AB8D5
:10577000642000F027F8012240F25231104600F078
:1057800029FD01F023FC2046BDE8F04100F01AB8E5
:10579000BDE8F08100F0A4BA094948604FF47A727C
:1057A000504301220A804FF0E0210A6942F00202D0
:1057B0000A614861086940F0010008617047000013
:1057C0005001002070B504460D48007800280FD025
:1057D0000C48007860B90C4D2888844203D3B4FB90
:1057E000F0F000F017F82888B4FBF0F100FB11444A
:1057F0004FF47A706043BDE8704000F00DB80000CF
:10580000770100207201002050010020FCF7ECBD60
:10581000FCF700BEFDF734B92DE9F04100244FF04C
:10582000E0277E6905460C4840684543FFF7EEFFD8
:10583000BA69B9699142FCD003D2A2EB01000444D9
:1058400003E0A6EB0100104404440A46AC42F0D346
:10585000BDE8F041FFF7DCBF500100202DE9FF5FFC
:1058600004464FF07E57DFF8F880DFF8F8904FF4E9
:10587000FA7ABC420CD1D8F8000010F0FF4F07D0E4
:10588000002201214846FBF7E0FE5046FFF79AFF51
:10589000DFF8D4B0354EBC420BD1306810F0FF4F6A
:1058A00007D0002201215846FBF7CFFE5046FFF7F4
:1058B00089FF2F4DBC420BD1286810F0FF4F07D055
:1058C000002202214846FBF7C0FE5046FFF77AFF50
:1058D00014F0FF4F0CD1D8F8000010F0FF4F07D0A4
:1058E000012211464846FBF7B0FE5046FFF76AFF1B
:1058F00014F0FF4F0BD1306810F0FF4F07D001229A
:1059000011465846FBF7A1FE5046FFF75BFF14F027
:10591000FF4F0BD1286810F0FF4F07D00122022162
:105920004846FBF792FE5046FFF74CFF2868FAF70F
:1059300041FF04460D463068FAF73CFF06460F4625
:10594000D8F80000FAF736FF02460B4609A0CDE969
:105950000067CDE90245FEF7CDF8BDE8FF9F0000E6
:105960001C000020001C0140001801402400002001
:10597000200000206E6F726D616C697A6564206C26
:105980006F773A2025662C20726F743A2025662C9A
:1059900020686967685F616C6C3A2025660D0A00B3
:1059A00010B586B00E48816941F02001816180699F
:1059B00000F0200001904020029000200390012080
:1059C000049003200590074C02A92046FBF724FD14
:1059D000012240212046FBF738FE06B010BD000032
:1059E000001002400014014000F094BA10B586B0D7
:1059F0001448816941F010018161816901F0100151
:105A00000191C16941F40021C161C06900F4002025
:105A100001904FF4806002900220039001200490D6
:105A200003200590084C02A92046FBF7F5FCE11481
:105A300002910021039102A92046FBF7EDFC06B07C
:105A400010BD0000001002400010014082B0154A55
:105A50001549904208D94A6942F002024A614969EF
:105A600001F00201019107E04A6942F001024A6136
:105A7000496901F0010101910C49A1F14002116352
:105A80004A62086010204860002088608022CA6056
:105A90000861486188615001C861084602B0FBF79F
:105AA0007BBC000080000240001002405417002020
:105AB00010B50F490D4A0A60486000208860C86030
:105AC000086188610C2048610846FCF727FA00222B
:105AD00005213420FBF722FE3420FBF711FEBDE840
